20160608-03:25:05.000 : 8=FIX.4.4|9=121|35=A|34=1|49=cde4ca87-dc34-4a80-af56-01812c66653d|52=20160608-03:25:05.000|56=BTCC-PRO-EXCHANGE-SERVER|98=0|108=30|141=Y|10=108|
20160608-03:28:36.000 : 8=FIX.4.4|9=121|35=A|34=1|49=cde4ca87-dc34-4a80-af56-01812c66653d|52=20160608-03:28:36.000|56=BTCC-PRO-EXCHANGE-SERVER|98=0|108=30|141=Y|10=115|
20160608-03:29:19.000 : 8=FIX.4.4|9=121|35=A|34=1|49=cde4ca87-dc34-4a80-af56-01812c66653d|52=20160608-03:29:19.000|56=BTCC-PRO-EXCHANGE-SERVER|98=0|108=30|141=Y|10=117|
20160608-03:31:52.000 : 8=FIX.4.4|9=121|35=A|34=1|49=cde4ca87-dc34-4a80-af56-01812c66653d|52=20160608-03:31:52.000|56=BTCC-PRO-EXCHANGE-SERVER|98=0|108=30|141=Y|10=107|
20160608-03:32:07.000 : 8=FIX.4.4|9=121|35=A|34=1|49=cde4ca87-dc34-4a80-af56-01812c66653d|52=20160608-03:32:07.000|56=BTCC-PRO-EXCHANGE-SERVER|98=0|108=30|141=Y|10=108|
20160608-03:34:18.000 : 8=FIX.4.4|9=121|35=A|34=1|49=cde4ca87-dc34-4a80-af56-01812c66653d|52=20160608-03:34:18.000|56=BTCC-PRO-EXCHANGE-SERVER|98=0|108=30|141=Y|10=112|
20160608-03:35:47.000 : 8=FIX.4.4|9=121|35=A|34=1|49=cde4ca87-dc34-4a80-af56-01812c66653d|52=20160608-03:35:47.000|56=BTCC-PRO-EXCHANGE-SERVER|98=0|108=30|141=Y|10=115|
20160608-03:35:47.000 : 8=FIX.4.4|9=121|35=A|34=1|49=BTCC-PRO-EXCHANGE-SERVER|52=20160608-03:35:47.704|56=cde4ca87-dc34-4a80-af56-01812c66653d|98=0|108=30|141=Y|10=126|
20160608-03:36:17.000 : 8=FIX.4.4|9=103|35=0|34=2|49=cde4ca87-dc34-4a80-af56-01812c66653d|52=20160608-03:36:17.000|56=BTCC-PRO-EXCHANGE-SERVER|10=027|
20160608-03:36:17.000 : 8=FIX.4.4|9=103|35=0|34=2|49=BTCC-PRO-EXCHANGE-SERVER|52=20160608-03:36:17.754|56=cde4ca87-dc34-4a80-af56-01812c66653d|10=043|
20160608-03:36:47.000 : 8=FIX.4.4|9=103|35=0|34=3|49=cde4ca87-dc34-4a80-af56-01812c66653d|52=20160608-03:36:47.000|56=BTCC-PRO-EXCHANGE-SERVER|10=031|
20160608-03:36:47.000 : 8=FIX.4.4|9=103|35=0|34=3|49=BTCC-PRO-EXCHANGE-SERVER|52=20160608-03:36:47.826|56=cde4ca87-dc34-4a80-af56-01812c66653d|10=047|
20160608-03:37:17.000 : 8=FIX.4.4|9=103|35=0|34=4|49=cde4ca87-dc34-4a80-af56-01812c66653d|52=20160608-03:37:17.000|56=BTCC-PRO-EXCHANGE-SERVER|10=030|
20160608-03:37:17.000 : 8=FIX.4.4|9=103|35=0|34=4|49=BTCC-PRO-EXCHANGE-SERVER|52=20160608-03:37:17.826|56=cde4ca87-dc34-4a80-af56-01812c66653d|10=046|
20160608-03:37:47.000 : 8=FIX.4.4|9=103|35=0|34=5|49=cde4ca87-dc34-4a80-af56-01812c66653d|52=20160608-03:37:47.000|56=BTCC-PRO-EXCHANGE-SERVER|10=034|
20160608-03:37:47.000 : 8=FIX.4.4|9=103|35=0|34=5|49=BTCC-PRO-EXCHANGE-SERVER|52=20160608-03:37:47.826|56=cde4ca87-dc34-4a80-af56-01812c66653d|10=050|
20160608-03:38:17.000 : 8=FIX.4.4|9=103|35=0|34=6|49=cde4ca87-dc34-4a80-af56-01812c66653d|52=20160608-03:38:17.000|56=BTCC-PRO-EXCHANGE-SERVER|10=033|
20160608-03:38:17.000 : 8=FIX.4.4|9=103|35=0|34=6|49=BTCC-PRO-EXCHANGE-SERVER|52=20160608-03:38:17.826|56=cde4ca87-dc34-4a80-af56-01812c66653d|10=049|
20160608-03:54:14.000 : 8=FIX.4.4|9=121|35=A|34=1|49=cde4ca87-dc34-4a80-af56-01812c66653d|52=20160608-03:54:14.000|56=BTCC-PRO-EXCHANGE-SERVER|98=0|108=30|141=Y|10=110|
20160608-03:54:14.000 : 8=FIX.4.4|9=121|35=A|34=1|49=BTCC-PRO-EXCHANGE-SERVER|52=20160608-03:54:14.597|56=cde4ca87-dc34-4a80-af56-01812c66653d|98=0|108=30|141=Y|10=131|
20160608-03:54:44.000 : 8=FIX.4.4|9=103|35=0|34=2|49=cde4ca87-dc34-4a80-af56-01812c66653d|52=20160608-03:54:44.000|56=BTCC-PRO-EXCHANGE-SERVER|10=027|
20160608-03:54:44.000 : 8=FIX.4.4|9=103|35=0|34=2|49=BTCC-PRO-EXCHANGE-SERVER|52=20160608-03:54:44.622|56=cde4ca87-dc34-4a80-af56-01812c66653d|10=037|
20160608-03:55:14.000 : 8=FIX.4.4|9=103|35=0|34=3|49=cde4ca87-dc34-4a80-af56-01812c66653d|52=20160608-03:55:14.000|56=BTCC-PRO-EXCHANGE-SERVER|10=026|
20160608-03:55:15.000 : 8=FIX.4.4|9=103|35=0|34=3|49=BTCC-PRO-EXCHANGE-SERVER|52=20160608-03:55:14.826|56=cde4ca87-dc34-4a80-af56-01812c66653d|10=042|
20160608-03:55:44.000 : 8=FIX.4.4|9=103|35=0|34=4|49=cde4ca87-dc34-4a80-af56-01812c66653d|52=20160608-03:55:44.000|56=BTCC-PRO-EXCHANGE-SERVER|10=030|
20160608-03:55:45.000 : 8=FIX.4.4|9=103|35=0|34=4|49=BTCC-PRO-EXCHANGE-SERVER|52=20160608-03:55:44.826|56=cde4ca87-dc34-4a80-af56-01812c66653d|10=046|
