8=FIX.4.4|9=121|35=A|34=1|49=cde4ca87-dc34-4a80-af56-01812c66653d|52=20160612-07:36:28.000|56=BTCC-PRO-EXCHANGE-SERVER|98=0|108=30|141=Y|10=114|8=FIX.4.4|9=329|35=D|34=2|49=cde4ca87-dc34-4a80-af56-01812c66653d|52=20160612-07:36:28.000|56=BTCC-PRO-EXCHANGE-SERVER|1=1465716988831075:Basic YTM5YWQxMjEtMzFhNS00YTFhLWFjYzctYjcwMmM3Y2E0NmY3OmRjMTFlNTQyMDljYjYwMjQ5MGQ5M2I4MzM3MWQwODZmMjllYzFkNjg=|11=601c4447-3070-11e6-af7f-b88d1238d4d8|38=1|40=2|44=1|54=1|55=XBTUSD|59=1|60=20160612-07:36:28|10=137|8=FIX.4.4|9=103|35=0|34=3|49=cde4ca87-dc34-4a80-af56-01812c66653d|52=20160612-07:36:58.000|56=BTCC-PRO-EXCHANGE-SERVER|10=032|8=FIX.4.4|9=103|35=0|34=4|49=cde4ca87-dc34-4a80-af56-01812c66653d|52=20160612-07:37:28.000|56=BTCC-PRO-EXCHANGE-SERVER|10=031|8=FIX.4.4|9=103|35=0|34=5|49=cde4ca87-dc34-4a80-af56-01812c66653d|52=20160612-07:37:58.000|56=BTCC-PRO-EXCHANGE-SERVER|10=035|