8=FIX.4.4|9=121|35=A|34=1|49=cde4ca87-dc34-4a80-af56-01812c66653d|52=20160612-10:09:03.000|56=BTCC-PRO-EXCHANGE-SERVER|98=0|108=30|141=Y|10=101|8=FIX.4.4|9=329|35=D|34=2|49=cde4ca87-dc34-4a80-af56-01812c66653d|52=20160612-10:09:04.000|56=BTCC-PRO-EXCHANGE-SERVER|1=1465726143891771:Basic YTM5YWQxMjEtMzFhNS00YTFhLWFjYzctYjcwMmM3Y2E0NmY3Ojk5NzY1OWM2Y2FkNzI0ZTc0MGFjZmMzMjVlNzJmMDMxOGQxY2VjNGU=|11=b0f3a6d9-3085-11e6-bbdb-b88d1238d4d8|38=1|40=2|44=1|54=1|55=XBTUSD|59=1|60=20160612-10:09:03|10=166|8=FIX.4.4|9=329|35=D|34=3|49=cde4ca87-dc34-4a80-af56-01812c66653d|52=20160612-10:09:06.000|56=BTCC-PRO-EXCHANGE-SERVER|1=1465726143901366:Basic YTM5YWQxMjEtMzFhNS00YTFhLWFjYzctYjcwMmM3Y2E0NmY3OmY0MzRiMjgwZWQ5YzZjYzdkZjVjNjdhNGIwZmU0MWY0Mzc3NmVlNzg=|11=b0f51861-3085-11e6-bdc6-b88d1238d4d8|38=1|40=2|44=1|54=1|55=XBTUSD|59=1|60=20160612-10:09:03|10=125|