20160612-09:54:05.000 : 8=FIX.4.4|9=121|35=A|34=1|49=cde4ca87-dc34-4a80-af56-01812c66653d|52=20160612-09:54:05.000|56=BTCC-PRO-EXCHANGE-SERVER|98=0|108=30|141=Y|10=111|
20160612-09:54:06.000 : 8=FIX.4.4|9=121|35=A|34=1|49=BTCC-PRO-EXCHANGE-SERVER|52=20160612-09:54:06.917|56=cde4ca87-dc34-4a80-af56-01812c66653d|98=0|108=30|141=Y|10=129|
20160612-09:54:06.000 : 8=FIX.4.4|9=329|35=D|34=2|49=cde4ca87-dc34-4a80-af56-01812c66653d|52=20160612-09:54:06.000|56=BTCC-PRO-EXCHANGE-SERVER|1=1465725245871919:Basic YTM5YWQxMjEtMzFhNS00YTFhLWFjYzctYjcwMmM3Y2E0NmY3Ojg3MmU0Mzk5ZGFiY2JlN2Y2YzVmOWNjOWU2MDJiNmY4YWFjYzJkMGI=|11=99b0b3f3-3083-11e6-ae36-b88d1238d4d8|38=1|40=2|44=1|54=1|55=XBTUSD|59=1|60=20160612-09:54:05|10=249|
20160612-09:54:06.000 : 8=FIX.4.4|9=305|35=8|34=2|49=BTCC-PRO-EXCHANGE-SERVER|52=20160612-09:54:07.221|56=cde4ca87-dc34-4a80-af56-01812c66653d|6=0|11=99b0b3f3-3083-11e6-ae36-b88d1238d4d8|14=0|17=1c3fa5f0-bee2-4492-ab12-22e56cf17f16|32=0|37=87d0344514de43e988b9d3e4254f7a31|39=A|40=2|44=1|54=1|55=XBTUSD|59=1|60=20160612-09:54:07.125|150=A|151=1|10=014|
20160612-09:54:06.000 : 8=FIX.4.4|9=305|35=8|34=3|49=BTCC-PRO-EXCHANGE-SERVER|52=20160612-09:54:07.222|56=cde4ca87-dc34-4a80-af56-01812c66653d|6=0|11=99b0b3f3-3083-11e6-ae36-b88d1238d4d8|14=0|17=7a629f42-2b1a-4800-b0d6-517156f348ae|32=0|37=87d0344514de43e988b9d3e4254f7a31|39=0|40=2|44=1|54=1|55=XBTUSD|59=1|60=20160612-09:54:07.125|150=0|151=1|10=051|
20160612-09:54:36.000 : 8=FIX.4.4|9=103|35=0|34=3|49=cde4ca87-dc34-4a80-af56-01812c66653d|52=20160612-09:54:36.000|56=BTCC-PRO-EXCHANGE-SERVER|10=030|
20160612-09:54:37.000 : 8=FIX.4.4|9=103|35=0|34=4|49=BTCC-PRO-EXCHANGE-SERVER|52=20160612-09:54:37.826|56=cde4ca87-dc34-4a80-af56-01812c66653d|10=048|
20160612-09:55:06.000 : 8=FIX.4.4|9=103|35=0|34=4|49=cde4ca87-dc34-4a80-af56-01812c66653d|52=20160612-09:55:06.000|56=BTCC-PRO-EXCHANGE-SERVER|10=029|
20160612-09:55:07.000 : 8=FIX.4.4|9=103|35=0|34=5|49=BTCC-PRO-EXCHANGE-SERVER|52=20160612-09:55:07.826|56=cde4ca87-dc34-4a80-af56-01812c66653d|10=047|
20160612-09:55:36.000 : 8=FIX.4.4|9=103|35=0|34=5|49=cde4ca87-dc34-4a80-af56-01812c66653d|52=20160612-09:55:36.000|56=BTCC-PRO-EXCHANGE-SERVER|10=033|
20160612-09:55:37.000 : 8=FIX.4.4|9=103|35=0|34=6|49=BTCC-PRO-EXCHANGE-SERVER|52=20160612-09:55:37.826|56=cde4ca87-dc34-4a80-af56-01812c66653d|10=051|
20160612-09:57:12.000 : 8=FIX.4.4|9=121|35=A|34=1|49=cde4ca87-dc34-4a80-af56-01812c66653d|52=20160612-09:57:12.000|56=BTCC-PRO-EXCHANGE-SERVER|98=0|108=30|141=Y|10=112|
20160612-09:57:12.000 : 8=FIX.4.4|9=121|35=A|34=1|49=BTCC-PRO-EXCHANGE-SERVER|52=20160612-09:57:13.312|56=cde4ca87-dc34-4a80-af56-01812c66653d|98=0|108=30|141=Y|10=119|
20160612-09:57:41.000 : 8=FIX.4.4|9=121|35=A|34=1|49=cde4ca87-dc34-4a80-af56-01812c66653d|52=20160612-09:57:41.000|56=BTCC-PRO-EXCHANGE-SERVER|98=0|108=30|141=Y|10=114|
20160612-09:57:41.000 : 8=FIX.4.4|9=121|35=A|34=1|49=BTCC-PRO-EXCHANGE-SERVER|52=20160612-09:57:42.290|56=cde4ca87-dc34-4a80-af56-01812c66653d|98=0|108=30|141=Y|10=126|
20160612-09:58:14.000 : 8=FIX.4.4|9=121|35=A|34=1|49=cde4ca87-dc34-4a80-af56-01812c66653d|52=20160612-09:58:14.000|56=BTCC-PRO-EXCHANGE-SERVER|98=0|108=30|141=Y|10=115|
20160612-09:58:14.000 : 8=FIX.4.4|9=121|35=A|34=1|49=BTCC-PRO-EXCHANGE-SERVER|52=20160612-09:58:15.438|56=cde4ca87-dc34-4a80-af56-01812c66653d|98=0|108=30|141=Y|10=131|
20160612-10:01:22.000 : 8=FIX.4.4|9=121|35=A|34=1|49=cde4ca87-dc34-4a80-af56-01812c66653d|52=20160612-10:01:22.000|56=BTCC-PRO-EXCHANGE-SERVER|98=0|108=30|141=Y|10=094|
20160612-10:01:23.000 : 8=FIX.4.4|9=121|35=A|34=1|49=BTCC-PRO-EXCHANGE-SERVER|52=20160612-10:01:23.723|56=cde4ca87-dc34-4a80-af56-01812c66653d|98=0|108=30|141=Y|10=107|
20160612-10:01:23.000 : 8=FIX.4.4|9=329|35=D|34=2|49=cde4ca87-dc34-4a80-af56-01812c66653d|52=20160612-10:01:23.000|56=BTCC-PRO-EXCHANGE-SERVER|1=1465725682456522:Basic YTM5YWQxMjEtMzFhNS00YTFhLWFjYzctYjcwMmM3Y2E0NmY3OmVkOTBkOGI3ZDk2YTUwYzZkMWE0YzYwOWIzZTA1YWRlZDM1NTdjOWQ=|11=9dea3847-3084-11e6-b5e6-b88d1238d4d8|38=1|40=2|44=1|54=1|55=XBTUSD|59=1|60=20160612-10:01:22|10=054|
20160612-10:01:24.000 : 8=FIX.4.4|9=305|35=8|34=2|49=BTCC-PRO-EXCHANGE-SERVER|52=20160612-10:01:25.293|56=cde4ca87-dc34-4a80-af56-01812c66653d|6=0|11=9dea3847-3084-11e6-b5e6-b88d1238d4d8|14=0|17=298ac1ba-69aa-476e-880d-80b3a77e45dc|32=0|37=fbb696a6f34e481994f58b327f18f472|39=A|40=2|44=1|54=1|55=XBTUSD|59=1|60=20160612-10:01:25.202|150=A|151=1|10=083|
20160612-10:01:24.000 : 8=FIX.4.4|9=305|35=8|34=3|49=BTCC-PRO-EXCHANGE-SERVER|52=20160612-10:01:25.294|56=cde4ca87-dc34-4a80-af56-01812c66653d|6=0|11=9dea3847-3084-11e6-b5e6-b88d1238d4d8|14=0|17=fb42fd92-df51-469d-a580-8d2942ebb256|32=0|37=fbb696a6f34e481994f58b327f18f472|39=0|40=2|44=1|54=1|55=XBTUSD|59=1|60=20160612-10:01:25.202|150=0|151=1|10=007|
20160612-10:03:48.000 : 8=FIX.4.4|9=121|35=A|34=1|49=cde4ca87-dc34-4a80-af56-01812c66653d|52=20160612-10:03:48.000|56=BTCC-PRO-EXCHANGE-SERVER|98=0|108=30|141=Y|10=104|
20160612-10:03:48.000 : 8=FIX.4.4|9=121|35=A|34=1|49=BTCC-PRO-EXCHANGE-SERVER|52=20160612-10:03:49.182|56=cde4ca87-dc34-4a80-af56-01812c66653d|98=0|108=30|141=Y|10=116|
20160612-10:03:48.000 : 8=FIX.4.4|9=329|35=D|34=2|49=cde4ca87-dc34-4a80-af56-01812c66653d|52=20160612-10:03:48.000|56=BTCC-PRO-EXCHANGE-SERVER|1=1465725828201330:Basic YTM5YWQxMjEtMzFhNS00YTFhLWFjYzctYjcwMmM3Y2E0NmY3OmZhYTU2OTk1NzA3M2Y4Y2IwY2I5NzgwNGM4ZDUzYTZhZTFlOWEyZGY=|11=f4c91d3d-3084-11e6-b7c5-b88d1238d4d8|38=1|40=2|44=1|54=1|55=XBTUSD|59=1|60=20160612-10:03:48|10=230|
20160612-10:03:48.000 : 8=FIX.4.4|9=305|35=8|34=2|49=BTCC-PRO-EXCHANGE-SERVER|52=20160612-10:03:49.605|56=cde4ca87-dc34-4a80-af56-01812c66653d|6=0|11=f4c91d3d-3084-11e6-b7c5-b88d1238d4d8|14=0|17=69ae0dab-9978-4451-bf61-42e5baba3fe9|32=0|37=eb27c4d0f0a84cf6b85f55b69dd9874a|39=A|40=2|44=1|54=1|55=XBTUSD|59=1|60=20160612-10:03:49.514|150=A|151=1|10=114|
20160612-10:03:48.000 : 8=FIX.4.4|9=305|35=8|34=3|49=BTCC-PRO-EXCHANGE-SERVER|52=20160612-10:03:49.605|56=cde4ca87-dc34-4a80-af56-01812c66653d|6=0|11=f4c91d3d-3084-11e6-b7c5-b88d1238d4d8|14=0|17=b30edb02-49c5-4790-9c03-b5084d50838a|32=0|37=eb27c4d0f0a84cf6b85f55b69dd9874a|39=0|40=2|44=1|54=1|55=XBTUSD|59=1|60=20160612-10:03:49.514|150=0|151=1|10=084|
20160612-10:04:33.000 : 8=FIX.4.4|9=121|35=A|34=1|49=cde4ca87-dc34-4a80-af56-01812c66653d|52=20160612-10:04:33.000|56=BTCC-PRO-EXCHANGE-SERVER|98=0|108=30|141=Y|10=099|
20160612-10:04:33.000 : 8=FIX.4.4|9=121|35=A|34=1|49=BTCC-PRO-EXCHANGE-SERVER|52=20160612-10:04:34.021|56=cde4ca87-dc34-4a80-af56-01812c66653d|98=0|108=30|141=Y|10=103|
20160612-10:04:33.000 : 8=FIX.4.4|9=329|35=D|34=2|49=cde4ca87-dc34-4a80-af56-01812c66653d|52=20160612-10:04:33.000|56=BTCC-PRO-EXCHANGE-SERVER|1=1465725873017222:Basic YTM5YWQxMjEtMzFhNS00YTFhLWFjYzctYjcwMmM3Y2E0NmY3OjMzZWY1NjBlNjkwZmU4ZDA0YzJjOGU0NDZlNmQ4Y2U1ODQ4NDJlMWI=|11=0f7f7ed1-3085-11e6-b53f-b88d1238d4d8|38=1|40=2|44=1|54=1|55=XBTUSD|59=1|60=20160612-10:04:33|10=178|
20160612-10:04:35.000 : 8=FIX.4.4|9=305|35=8|34=2|49=BTCC-PRO-EXCHANGE-SERVER|52=20160612-10:04:35.817|56=cde4ca87-dc34-4a80-af56-01812c66653d|6=0|11=0f7f7ed1-3085-11e6-b53f-b88d1238d4d8|14=0|17=3e147ced-ec59-4c81-aad7-ec3c7dbee9e1|32=0|37=a8b6f9788fd14eb88372f456515f6eee|39=A|40=2|44=1|54=1|55=XBTUSD|59=1|60=20160612-10:04:35.733|150=A|151=1|10=230|
20160612-10:04:35.000 : 8=FIX.4.4|9=305|35=8|34=3|49=BTCC-PRO-EXCHANGE-SERVER|52=20160612-10:04:35.819|56=cde4ca87-dc34-4a80-af56-01812c66653d|6=0|11=0f7f7ed1-3085-11e6-b53f-b88d1238d4d8|14=0|17=2ee7e980-5fcf-4b86-9236-f4d24aeef382|32=0|37=a8b6f9788fd14eb88372f456515f6eee|39=0|40=2|44=1|54=1|55=XBTUSD|59=1|60=20160612-10:04:35.733|150=0|151=1|10=231|
20160612-10:05:49.000 : 8=FIX.4.4|9=121|35=A|34=1|49=cde4ca87-dc34-4a80-af56-01812c66653d|52=20160612-10:05:49.000|56=BTCC-PRO-EXCHANGE-SERVER|98=0|108=30|141=Y|10=107|
20160612-10:05:50.000 : 8=FIX.4.4|9=121|35=A|34=1|49=BTCC-PRO-EXCHANGE-SERVER|52=20160612-10:05:50.658|56=cde4ca87-dc34-4a80-af56-01812c66653d|98=0|108=30|141=Y|10=118|
20160612-10:05:50.000 : 8=FIX.4.4|9=329|35=D|34=2|49=cde4ca87-dc34-4a80-af56-01812c66653d|52=20160612-10:05:50.000|56=BTCC-PRO-EXCHANGE-SERVER|1=1465725949600264:Basic YTM5YWQxMjEtMzFhNS00YTFhLWFjYzctYjcwMmM3Y2E0NmY3OmE2ODQyM2QzNjQ2YmFiNGI4NTU1MTMwOTZhYzI4NmU4MjNmZGJiNDQ=|11=3d25229c-3085-11e6-bb90-b88d1238d4d8|38=1|40=2|44=1|54=1|55=XBTUSD|59=1|60=20160612-10:05:49|10=114|
20160612-10:05:51.000 : 8=FIX.4.4|9=305|35=8|34=2|49=BTCC-PRO-EXCHANGE-SERVER|52=20160612-10:05:52.134|56=cde4ca87-dc34-4a80-af56-01812c66653d|6=0|11=3d25229c-3085-11e6-bb90-b88d1238d4d8|14=0|17=9dc539e1-0cc4-4b43-881a-85f4943abaa1|32=0|37=318373851fcc4ca9a4c9cfe1c153e4d9|39=A|40=2|44=1|54=1|55=XBTUSD|59=1|60=20160612-10:05:52.045|150=A|151=1|10=089|
20160612-10:05:51.000 : 8=FIX.4.4|9=305|35=8|34=3|49=BTCC-PRO-EXCHANGE-SERVER|52=20160612-10:05:52.135|56=cde4ca87-dc34-4a80-af56-01812c66653d|6=0|11=3d25229c-3085-11e6-bb90-b88d1238d4d8|14=0|17=a9ee6829-4023-4903-84de-e1b4ed2a179f|32=0|37=318373851fcc4ca9a4c9cfe1c153e4d9|39=0|40=2|44=1|54=1|55=XBTUSD|59=1|60=20160612-10:05:52.045|150=0|151=1|10=022|
20160612-10:07:21.000 : 8=FIX.4.4|9=121|35=A|34=1|49=cde4ca87-dc34-4a80-af56-01812c66653d|52=20160612-10:07:21.000|56=BTCC-PRO-EXCHANGE-SERVER|98=0|108=30|141=Y|10=099|
20160612-10:07:21.000 : 8=FIX.4.4|9=121|35=A|34=1|49=BTCC-PRO-EXCHANGE-SERVER|52=20160612-10:07:22.044|56=cde4ca87-dc34-4a80-af56-01812c66653d|98=0|108=30|141=Y|10=108|
20160612-10:07:21.000 : 8=FIX.4.4|9=329|35=D|34=2|49=cde4ca87-dc34-4a80-af56-01812c66653d|52=20160612-10:07:21.000|56=BTCC-PRO-EXCHANGE-SERVER|1=1465726041100254:Basic YTM5YWQxMjEtMzFhNS00YTFhLWFjYzctYjcwMmM3Y2E0NmY3OmYzNDI4YTRmMjc5MWEzMzJiYTUyMTZmNGM2NWI0MDFmMTljYmYzZmQ=|11=73aee919-3085-11e6-83af-b88d1238d4d8|38=1|40=2|44=1|54=1|55=XBTUSD|59=1|60=20160612-10:07:21|10=127|
20160612-10:07:23.000 : 8=FIX.4.4|9=305|35=8|34=2|49=BTCC-PRO-EXCHANGE-SERVER|52=20160612-10:07:24.249|56=cde4ca87-dc34-4a80-af56-01812c66653d|6=0|11=73aee919-3085-11e6-83af-b88d1238d4d8|14=0|17=a2bb2f0d-c70a-438b-b766-20a460581c6c|32=0|37=a790d284bcd74ece82bb5e6bc641fb2e|39=A|40=2|44=1|54=1|55=XBTUSD|59=1|60=20160612-10:07:24.154|150=A|151=1|10=027|
20160612-10:07:23.000 : 8=FIX.4.4|9=305|35=8|34=3|49=BTCC-PRO-EXCHANGE-SERVER|52=20160612-10:07:24.250|56=cde4ca87-dc34-4a80-af56-01812c66653d|6=0|11=73aee919-3085-11e6-83af-b88d1238d4d8|14=0|17=cca91d5f-881f-4742-84de-85a944c23444|32=0|37=a790d284bcd74ece82bb5e6bc641fb2e|39=0|40=2|44=1|54=1|55=XBTUSD|59=1|60=20160612-10:07:24.154|150=0|151=1|10=183|
20160612-10:08:07.000 : 8=FIX.4.4|9=121|35=A|34=1|49=cde4ca87-dc34-4a80-af56-01812c66653d|52=20160612-10:08:07.000|56=BTCC-PRO-EXCHANGE-SERVER|98=0|108=30|141=Y|10=104|
20160612-10:08:08.000 : 8=FIX.4.4|9=121|35=A|34=1|49=BTCC-PRO-EXCHANGE-SERVER|52=20160612-10:08:08.682|56=cde4ca87-dc34-4a80-af56-01812c66653d|98=0|108=30|141=Y|10=121|
20160612-10:08:08.000 : 8=FIX.4.4|9=329|35=D|34=2|49=cde4ca87-dc34-4a80-af56-01812c66653d|52=20160612-10:08:08.000|56=BTCC-PRO-EXCHANGE-SERVER|1=1465726087648735:Basic YTM5YWQxMjEtMzFhNS00YTFhLWFjYzctYjcwMmM3Y2E0NmY3OmJlZDk3MGIzMjc5ZTIyZjllNTA4ZDM1YTA4NTE5MmQyMGE3YWY4OWE=|11=8f6da50f-3085-11e6-884c-b88d1238d4d8|38=1|40=2|44=1|54=1|55=XBTUSD|59=1|60=20160612-10:08:07|10=124|
20160612-10:08:08.000 : 8=FIX.4.4|9=305|35=8|34=2|49=BTCC-PRO-EXCHANGE-SERVER|52=20160612-10:08:08.985|56=cde4ca87-dc34-4a80-af56-01812c66653d|6=0|11=8f6da50f-3085-11e6-884c-b88d1238d4d8|14=0|17=a7b2ef2f-35da-472b-8bd2-827477446ffe|32=0|37=e28cba2b2acc4f27bf9f628d6c26c5dd|39=A|40=2|44=1|54=1|55=XBTUSD|59=1|60=20160612-10:08:08.888|150=A|151=1|10=185|
20160612-10:08:08.000 : 8=FIX.4.4|9=305|35=8|34=3|49=BTCC-PRO-EXCHANGE-SERVER|52=20160612-10:08:08.987|56=cde4ca87-dc34-4a80-af56-01812c66653d|6=0|11=8f6da50f-3085-11e6-884c-b88d1238d4d8|14=0|17=42c9938f-16a2-4e2e-a24f-e40bee85569c|32=0|37=e28cba2b2acc4f27bf9f628d6c26c5dd|39=0|40=2|44=1|54=1|55=XBTUSD|59=1|60=20160612-10:08:08.888|150=0|151=1|10=105|
20160612-10:08:10.000 : 8=FIX.4.4|9=329|35=D|34=3|49=cde4ca87-dc34-4a80-af56-01812c66653d|52=20160612-10:08:10.000|56=BTCC-PRO-EXCHANGE-SERVER|1=1465726087658500:Basic YTM5YWQxMjEtMzFhNS00YTFhLWFjYzctYjcwMmM3Y2E0NmY3OjJkMTQ0YjVmYWM0MTQxZDZiNWU2YjhiY2IxNGEzMDUzOGQ4NTEwOWY=|11=8f6f1d82-3085-11e6-9b08-b88d1238d4d8|38=1|40=2|44=1|54=1|55=XBTUSD|59=1|60=20160612-10:08:07|10=251|
20160612-10:08:10.000 : 8=FIX.4.4|9=305|35=8|34=4|49=BTCC-PRO-EXCHANGE-SERVER|52=20160612-10:08:10.800|56=cde4ca87-dc34-4a80-af56-01812c66653d|6=0|11=8f6f1d82-3085-11e6-9b08-b88d1238d4d8|14=0|17=73dfb74d-cf66-4b03-a5e4-adc5ffd40032|32=0|37=cb8d842a32fa4636b9de3694c918b167|39=A|40=2|44=1|54=1|55=XBTUSD|59=1|60=20160612-10:08:10.701|150=A|151=1|10=152|
20160612-10:08:10.000 : 8=FIX.4.4|9=305|35=8|34=5|49=BTCC-PRO-EXCHANGE-SERVER|52=20160612-10:08:10.801|56=cde4ca87-dc34-4a80-af56-01812c66653d|6=0|11=8f6f1d82-3085-11e6-9b08-b88d1238d4d8|14=0|17=3e6dfb46-12a9-421e-8b9d-d1b49a430fa8|32=0|37=cb8d842a32fa4636b9de3694c918b167|39=0|40=2|44=1|54=1|55=XBTUSD|59=1|60=20160612-10:08:10.701|150=0|151=1|10=031|
20160612-10:08:40.000 : 8=FIX.4.4|9=103|35=0|34=6|49=BTCC-PRO-EXCHANGE-SERVER|52=20160612-10:08:40.826|56=cde4ca87-dc34-4a80-af56-01812c66653d|10=035|
20160612-10:08:40.000 : 8=FIX.4.4|9=103|35=0|34=4|49=cde4ca87-dc34-4a80-af56-01812c66653d|52=20160612-10:08:40.000|56=BTCC-PRO-EXCHANGE-SERVER|10=017|
20160612-10:09:03.000 : 8=FIX.4.4|9=121|35=A|34=1|49=cde4ca87-dc34-4a80-af56-01812c66653d|52=20160612-10:09:03.000|56=BTCC-PRO-EXCHANGE-SERVER|98=0|108=30|141=Y|10=101|
20160612-10:09:04.000 : 8=FIX.4.4|9=121|35=A|34=1|49=BTCC-PRO-EXCHANGE-SERVER|52=20160612-10:09:04.823|56=cde4ca87-dc34-4a80-af56-01812c66653d|98=0|108=30|141=Y|10=115|
20160612-10:09:04.000 : 8=FIX.4.4|9=329|35=D|34=2|49=cde4ca87-dc34-4a80-af56-01812c66653d|52=20160612-10:09:04.000|56=BTCC-PRO-EXCHANGE-SERVER|1=1465726143891771:Basic YTM5YWQxMjEtMzFhNS00YTFhLWFjYzctYjcwMmM3Y2E0NmY3Ojk5NzY1OWM2Y2FkNzI0ZTc0MGFjZmMzMjVlNzJmMDMxOGQxY2VjNGU=|11=b0f3a6d9-3085-11e6-bbdb-b88d1238d4d8|38=1|40=2|44=1|54=1|55=XBTUSD|59=1|60=20160612-10:09:03|10=166|
20160612-10:09:04.000 : 8=FIX.4.4|9=305|35=8|34=2|49=BTCC-PRO-EXCHANGE-SERVER|52=20160612-10:09:05.128|56=cde4ca87-dc34-4a80-af56-01812c66653d|6=0|11=b0f3a6d9-3085-11e6-bbdb-b88d1238d4d8|14=0|17=d6df2b30-4bcc-4ffb-8ff6-6ff7f7737dc9|32=0|37=9228d21b80924ce1b60694a42d4fa632|39=A|40=2|44=1|54=1|55=XBTUSD|59=1|60=20160612-10:09:05.029|150=A|151=1|10=097|
20160612-10:09:04.000 : 8=FIX.4.4|9=305|35=8|34=3|49=BTCC-PRO-EXCHANGE-SERVER|52=20160612-10:09:05.128|56=cde4ca87-dc34-4a80-af56-01812c66653d|6=0|11=b0f3a6d9-3085-11e6-bbdb-b88d1238d4d8|14=0|17=649a9f26-8b6d-434c-be35-5fe2806d6653|32=0|37=9228d21b80924ce1b60694a42d4fa632|39=0|40=2|44=1|54=1|55=XBTUSD|59=1|60=20160612-10:09:05.029|150=0|151=1|10=234|
20160612-10:09:06.000 : 8=FIX.4.4|9=329|35=D|34=3|49=cde4ca87-dc34-4a80-af56-01812c66653d|52=20160612-10:09:06.000|56=BTCC-PRO-EXCHANGE-SERVER|1=1465726143901366:Basic YTM5YWQxMjEtMzFhNS00YTFhLWFjYzctYjcwMmM3Y2E0NmY3OmY0MzRiMjgwZWQ5YzZjYzdkZjVjNjdhNGIwZmU0MWY0Mzc3NmVlNzg=|11=b0f51861-3085-11e6-bdc6-b88d1238d4d8|38=1|40=2|44=1|54=1|55=XBTUSD|59=1|60=20160612-10:09:03|10=125|
20160612-10:09:06.000 : 8=FIX.4.4|9=305|35=8|34=4|49=BTCC-PRO-EXCHANGE-SERVER|52=20160612-10:09:06.955|56=cde4ca87-dc34-4a80-af56-01812c66653d|6=0|11=b0f51861-3085-11e6-bdc6-b88d1238d4d8|14=0|17=cb301e94-1bd4-42eb-9bd2-99e5d6f2e104|32=0|37=691fd28829634507b4c1f029050eadc0|39=A|40=2|44=1|54=1|55=XBTUSD|59=1|60=20160612-10:09:06.857|150=A|151=1|10=014|
20160612-10:09:06.000 : 8=FIX.4.4|9=305|35=8|34=5|49=BTCC-PRO-EXCHANGE-SERVER|52=20160612-10:09:06.955|56=cde4ca87-dc34-4a80-af56-01812c66653d|6=0|11=b0f51861-3085-11e6-bdc6-b88d1238d4d8|14=0|17=55fb3677-077b-46a6-8a8f-7692ab2d808c|32=0|37=691fd28829634507b4c1f029050eadc0|39=0|40=2|44=1|54=1|55=XBTUSD|59=1|60=20160612-10:09:06.857|150=0|151=1|10=118|
