8=FIX.4.4|9=121|35=A|34=1|49=cde4ca87-dc34-4a80-af56-01812c66653d|52=20160608-03:54:14.000|56=BTCC-PRO-EXCHANGE-SERVER|98=0|108=30|141=Y|10=110|8=FIX.4.4|9=103|35=0|34=2|49=cde4ca87-dc34-4a80-af56-01812c66653d|52=20160608-03:54:44.000|56=BTCC-PRO-EXCHANGE-SERVER|10=027|8=FIX.4.4|9=103|35=0|34=3|49=cde4ca87-dc34-4a80-af56-01812c66653d|52=20160608-03:55:14.000|56=BTCC-PRO-EXCHANGE-SERVER|10=026|8=FIX.4.4|9=103|35=0|34=4|49=cde4ca87-dc34-4a80-af56-01812c66653d|52=20160608-03:55:44.000|56=BTCC-PRO-EXCHANGE-SERVER|10=030|