20160612-07:14:16.000 : 8=FIX.4.4|9=121|35=A|34=1|49=cde4ca87-dc34-4a80-af56-01812c66653d|52=20160612-07:14:16.000|56=BTCC-PRO-EXCHANGE-SERVER|98=0|108=30|141=Y|10=107|
20160612-07:14:16.000 : 8=FIX.4.4|9=121|35=A|34=1|49=BTCC-PRO-EXCHANGE-SERVER|52=20160612-07:14:16.371|56=cde4ca87-dc34-4a80-af56-01812c66653d|98=0|108=30|141=Y|10=118|
20160612-07:14:16.000 : 8=FIX.4.4|9=329|35=D|34=2|49=cde4ca87-dc34-4a80-af56-01812c66653d|52=20160612-07:14:16.000|56=BTCC-PRO-EXCHANGE-SERVER|1=1465715656030633:Basic YTM5YWQxMjEtMzFhNS00YTFhLWFjYzctYjcwMmM3Y2E0NmY3OjUyNzgyNjIwYTM2NWMwMTNmYThmYzcxMDczNWVmMjYxN2Q4MjEwZGI=|11=45b303f5-306d-11e6-81a9-b88d1238d4d8|38=1|40=2|44=1|54=1|55=XBTUSD|59=1|60=20160612-07:14:16|10=047|
20160612-07:14:16.000 : 8=FIX.4.4|9=305|35=8|34=2|49=BTCC-PRO-EXCHANGE-SERVER|52=20160612-07:14:16.657|56=cde4ca87-dc34-4a80-af56-01812c66653d|6=0|11=45b303f5-306d-11e6-81a9-b88d1238d4d8|14=0|17=e36b72fa-303e-4b92-ad81-c8b6ff6511a9|32=0|37=1fd706e22c5a4e0f8e92de5ab40360b7|39=A|40=2|44=1|54=1|55=XBTUSD|59=1|60=20160612-07:14:16.580|150=A|151=1|10=153|
20160612-07:14:16.000 : 8=FIX.4.4|9=305|35=8|34=3|49=BTCC-PRO-EXCHANGE-SERVER|52=20160612-07:14:16.659|56=cde4ca87-dc34-4a80-af56-01812c66653d|6=0|11=45b303f5-306d-11e6-81a9-b88d1238d4d8|14=0|17=c06541e0-f977-4de4-947c-ade4394511af|32=0|37=1fd706e22c5a4e0f8e92de5ab40360b7|39=0|40=2|44=1|54=1|55=XBTUSD|59=1|60=20160612-07:14:16.580|150=0|151=1|10=035|
20160612-07:14:46.000 : 8=FIX.4.4|9=103|35=0|34=3|49=cde4ca87-dc34-4a80-af56-01812c66653d|52=20160612-07:14:46.000|56=BTCC-PRO-EXCHANGE-SERVER|10=025|
20160612-07:14:46.000 : 8=FIX.4.4|9=103|35=0|34=4|49=BTCC-PRO-EXCHANGE-SERVER|52=20160612-07:14:46.826|56=cde4ca87-dc34-4a80-af56-01812c66653d|10=042|
20160612-07:16:51.000 : 8=FIX.4.4|9=121|35=A|34=1|49=cde4ca87-dc34-4a80-af56-01812c66653d|52=20160612-07:16:51.000|56=BTCC-PRO-EXCHANGE-SERVER|98=0|108=30|141=Y|10=108|
20160612-07:16:51.000 : 8=FIX.4.4|9=121|35=A|34=1|49=BTCC-PRO-EXCHANGE-SERVER|52=20160612-07:16:51.771|56=cde4ca87-dc34-4a80-af56-01812c66653d|98=0|108=30|141=Y|10=123|
20160612-07:16:51.000 : 8=FIX.4.4|9=329|35=D|34=2|49=cde4ca87-dc34-4a80-af56-01812c66653d|52=20160612-07:16:51.000|56=BTCC-PRO-EXCHANGE-SERVER|1=1465715811446836:Basic OWQyMzcyYTgtMTRiZS00NmQ4LWFjNmYtNDY2Y2Q2ZmFhMjllOmYzZDlkMDU3OTNiN2U0YmQwNjE0NGZkNzYxYmU2ZjhiMDVkNDA3OWQ=|11=a255adde-306d-11e6-abfe-b88d1238d4d8|38=1|40=2|44=1|54=1|55=XBTUSD|59=1|60=20160612-07:16:51|10=113|
20160612-07:16:52.000 : 8=FIX.4.4|9=265|35=8|34=2|49=BTCC-PRO-EXCHANGE-SERVER|52=20160612-07:16:52.040|56=cde4ca87-dc34-4a80-af56-01812c66653d|6=0|11=a255adde-306d-11e6-abfe-b88d1238d4d8|14=0|17=809d70bd-68d6-457d-923d-e2c7c22f18de|37=-1|39=8|44=0|54=1|55=XBTUSD|58=Margin Insufficient|103=99|150=8|151=0|10=233|
20160612-07:17:21.000 : 8=FIX.4.4|9=103|35=0|34=3|49=cde4ca87-dc34-4a80-af56-01812c66653d|52=20160612-07:17:21.000|56=BTCC-PRO-EXCHANGE-SERVER|10=021|
20160612-07:17:22.000 : 8=FIX.4.4|9=103|35=0|34=3|49=BTCC-PRO-EXCHANGE-SERVER|52=20160612-07:17:22.826|56=cde4ca87-dc34-4a80-af56-01812c66653d|10=038|
20160612-07:21:22.000 : 8=FIX.4.4|9=121|35=A|34=1|49=cde4ca87-dc34-4a80-af56-01812c66653d|52=20160612-07:21:22.000|56=BTCC-PRO-EXCHANGE-SERVER|98=0|108=30|141=Y|10=102|
20160612-07:21:23.000 : 8=FIX.4.4|9=121|35=A|34=1|49=BTCC-PRO-EXCHANGE-SERVER|52=20160612-07:21:23.339|56=cde4ca87-dc34-4a80-af56-01812c66653d|98=0|108=30|141=Y|10=118|
20160612-07:21:23.000 : 8=FIX.4.4|9=329|35=D|34=2|49=cde4ca87-dc34-4a80-af56-01812c66653d|52=20160612-07:21:23.000|56=BTCC-PRO-EXCHANGE-SERVER|1=1465716082979396:Basic OWQyMzcyYTgtMTRiZS00NmQ4LWFjNmYtNDY2Y2Q2ZmFhMjllOjdkNjM0NWZjOWQxMjZmZmU0MjA2YjFjNjlkN2Y2ODBlMGMxYjk5YzY=|11=442e5480-306e-11e6-9496-b88d1238d4d8|38=1|40=2|44=1|54=1|55=XBTUSD|59=1|60=20160612-07:21:22|10=107|
20160612-07:21:23.000 : 8=FIX.4.4|9=265|35=8|34=2|49=BTCC-PRO-EXCHANGE-SERVER|52=20160612-07:21:23.638|56=cde4ca87-dc34-4a80-af56-01812c66653d|6=0|11=442e5480-306e-11e6-9496-b88d1238d4d8|14=0|17=01ab3678-1d2b-4515-bcdc-7089f5adcea5|37=-1|39=8|44=0|54=1|55=XBTUSD|58=Margin Insufficient|103=99|150=8|151=0|10=202|
20160612-07:21:25.000 : 8=FIX.4.4|9=329|35=D|34=3|49=cde4ca87-dc34-4a80-af56-01812c66653d|52=20160612-07:21:25.000|56=BTCC-PRO-EXCHANGE-SERVER|1=1465716082993220:Basic MWJkZTY0MDctODM2ZC00NmU2LTk3ZWUtZGYzNjhjNTM4YmQyOmFhYzE2ZWUxMWYwNDEyNTJjYzA2YWViZThjMDU5NDM4ZmNiNzhhZjg=|11=443057f8-306e-11e6-9200-b88d1238d4d8|38=1|40=2|44=1|54=1|55=XBTUSD|59=1|60=20160612-07:21:22|10=229|
20160612-07:21:25.000 : 8=FIX.4.4|9=265|35=8|34=3|49=BTCC-PRO-EXCHANGE-SERVER|52=20160612-07:21:25.467|56=cde4ca87-dc34-4a80-af56-01812c66653d|6=0|11=443057f8-306e-11e6-9200-b88d1238d4d8|14=0|17=7f23d15f-3104-4316-999d-4d42525715fd|37=-1|39=8|44=0|54=1|55=XBTUSD|58=Margin Insufficient|103=99|150=8|151=0|10=131|
20160612-07:21:27.000 : 8=FIX.4.4|9=329|35=D|34=4|49=cde4ca87-dc34-4a80-af56-01812c66653d|52=20160612-07:21:27.000|56=BTCC-PRO-EXCHANGE-SERVER|1=1465716082993655:Basic YTM5YWQxMjEtMzFhNS00YTFhLWFjYzctYjcwMmM3Y2E0NmY3OjUyOTlmN2UzNGQ5MDVjOGY0NDFlN2U1NzcyMDM2YzQ0OTMxMjViNTU=|11=443067ab-306e-11e6-a769-b88d1238d4d8|38=1|40=2|44=1|54=1|55=XBTUSD|59=1|60=20160612-07:21:22|10=188|
20160612-07:21:27.000 : 8=FIX.4.4|9=265|35=8|34=4|49=BTCC-PRO-EXCHANGE-SERVER|52=20160612-07:21:27.421|56=cde4ca87-dc34-4a80-af56-01812c66653d|6=0|11=443067ab-306e-11e6-a769-b88d1238d4d8|14=0|17=a3088988-8ed3-4bc0-87a1-2cb95a18500f|37=-1|39=8|44=0|54=1|55=XBTUSD|58=Margin Insufficient|103=99|150=8|151=0|10=107|
20160612-07:21:57.000 : 8=FIX.4.4|9=103|35=0|34=5|49=BTCC-PRO-EXCHANGE-SERVER|52=20160612-07:21:57.826|56=cde4ca87-dc34-4a80-af56-01812c66653d|10=043|
20160612-07:21:57.000 : 8=FIX.4.4|9=103|35=0|34=5|49=cde4ca87-dc34-4a80-af56-01812c66653d|52=20160612-07:21:57.000|56=BTCC-PRO-EXCHANGE-SERVER|10=027|
20160612-07:22:27.000 : 8=FIX.4.4|9=103|35=0|34=6|49=cde4ca87-dc34-4a80-af56-01812c66653d|52=20160612-07:22:27.000|56=BTCC-PRO-EXCHANGE-SERVER|10=026|
20160612-07:22:27.000 : 8=FIX.4.4|9=103|35=0|34=6|49=BTCC-PRO-EXCHANGE-SERVER|52=20160612-07:22:27.826|56=cde4ca87-dc34-4a80-af56-01812c66653d|10=042|
20160612-07:22:57.000 : 8=FIX.4.4|9=103|35=0|34=7|49=cde4ca87-dc34-4a80-af56-01812c66653d|52=20160612-07:22:57.000|56=BTCC-PRO-EXCHANGE-SERVER|10=030|
20160612-07:22:57.000 : 8=FIX.4.4|9=103|35=0|34=7|49=BTCC-PRO-EXCHANGE-SERVER|52=20160612-07:22:57.826|56=cde4ca87-dc34-4a80-af56-01812c66653d|10=046|
20160612-07:29:06.000 : 8=FIX.4.4|9=121|35=A|34=1|49=cde4ca87-dc34-4a80-af56-01812c66653d|52=20160612-07:29:06.000|56=BTCC-PRO-EXCHANGE-SERVER|98=0|108=30|141=Y|10=112|
20160612-07:29:06.000 : 8=FIX.4.4|9=121|35=A|34=1|49=BTCC-PRO-EXCHANGE-SERVER|52=20160612-07:29:06.904|56=cde4ca87-dc34-4a80-af56-01812c66653d|98=0|108=30|141=Y|10=125|
20160612-07:29:06.000 : 8=FIX.4.4|9=329|35=D|34=2|49=cde4ca87-dc34-4a80-af56-01812c66653d|52=20160612-07:29:06.000|56=BTCC-PRO-EXCHANGE-SERVER|1=1465716546583458:Basic OWQyMzcyYTgtMTRiZS00NmQ4LWFjNmYtNDY2Y2Q2ZmFhMjllOjlmZGQ0OGNlOTg2MzNjYmZiZTE1N2M0NDJmNjcxMWIyYTQwOWYyODU=|11=58829ef3-306f-11e6-bbb4-b88d1238d4d8|38=1|40=2|44=1|54=1|55=XBTUSD|59=1|60=20160612-07:29:06|10=247|
20160612-07:29:07.000 : 8=FIX.4.4|9=265|35=8|34=2|49=BTCC-PRO-EXCHANGE-SERVER|52=20160612-07:29:07.190|56=cde4ca87-dc34-4a80-af56-01812c66653d|6=0|11=58829ef3-306f-11e6-bbb4-b88d1238d4d8|14=0|17=5393ba6d-d2d0-44b4-9b39-a0ff07e6f3af|37=-1|39=8|44=0|54=1|55=XBTUSD|58=Margin Insufficient|103=99|150=8|151=0|10=147|
20160612-07:29:08.000 : 8=FIX.4.4|9=329|35=D|34=3|49=cde4ca87-dc34-4a80-af56-01812c66653d|52=20160612-07:29:08.000|56=BTCC-PRO-EXCHANGE-SERVER|1=1465716546593247:Basic MWJkZTY0MDctODM2ZC00NmU2LTk3ZWUtZGYzNjhjNTM4YmQyOmI3NmIxMDQyYjExMWZlZjk5M2Y2OWEyODczOTY1NDEyYTEyMmZiNDY=|11=58841873-306f-11e6-8219-b88d1238d4d8|38=1|40=2|44=1|54=1|55=XBTUSD|59=1|60=20160612-07:29:06|10=126|
20160612-07:29:08.000 : 8=FIX.4.4|9=265|35=8|34=3|49=BTCC-PRO-EXCHANGE-SERVER|52=20160612-07:29:08.975|56=cde4ca87-dc34-4a80-af56-01812c66653d|6=0|11=58841873-306f-11e6-8219-b88d1238d4d8|14=0|17=91306c65-607d-4d1a-9f77-0cbaf22743c1|37=-1|39=8|44=0|54=1|55=XBTUSD|58=Margin Insufficient|103=99|150=8|151=0|10=244|
20160612-07:29:10.000 : 8=FIX.4.4|9=329|35=D|34=4|49=cde4ca87-dc34-4a80-af56-01812c66653d|52=20160612-07:29:10.000|56=BTCC-PRO-EXCHANGE-SERVER|1=1465716546593559:Basic YTM5YWQxMjEtMzFhNS00YTFhLWFjYzctYjcwMmM3Y2E0NmY3OjgzNzVhN2I0MDQ4M2YxNDMzMTRlOGI0ZWYxZDA0MTQ1MWZjZmUyMGY=|11=588422cc-306f-11e6-afcb-b88d1238d4d8|38=1|40=2|44=1|54=1|55=XBTUSD|59=1|60=20160612-07:29:06|10=056|
20160612-07:29:11.000 : 8=FIX.4.4|9=265|35=8|34=4|49=BTCC-PRO-EXCHANGE-SERVER|52=20160612-07:29:11.013|56=cde4ca87-dc34-4a80-af56-01812c66653d|6=0|11=588422cc-306f-11e6-afcb-b88d1238d4d8|14=0|17=826a6503-bade-42ca-91f9-c381cbdb9c33|37=-1|39=8|44=0|54=1|55=XBTUSD|58=Margin Insufficient|103=99|150=8|151=0|10=172|
20160612-07:29:28.000 : 8=FIX.4.4|9=121|35=A|34=1|49=cde4ca87-dc34-4a80-af56-01812c66653d|52=20160612-07:29:28.000|56=BTCC-PRO-EXCHANGE-SERVER|98=0|108=30|141=Y|10=116|
20160612-07:29:28.000 : 8=FIX.4.4|9=121|35=A|34=1|49=BTCC-PRO-EXCHANGE-SERVER|52=20160612-07:29:28.302|56=cde4ca87-dc34-4a80-af56-01812c66653d|98=0|108=30|141=Y|10=121|
20160612-07:29:28.000 : 8=FIX.4.4|9=329|35=D|34=2|49=cde4ca87-dc34-4a80-af56-01812c66653d|52=20160612-07:29:28.000|56=BTCC-PRO-EXCHANGE-SERVER|1=1465716568040569:Basic OWQyMzcyYTgtMTRiZS00NmQ4LWFjNmYtNDY2Y2Q2ZmFhMjllOmExMzUyZDEyMTE2ZjY4ZDM4NzNkMWQ2MTgxZTBkYWUxZDBiOGZiMWI=|11=654cb835-306f-11e6-ab19-b88d1238d4d8|38=1|40=2|44=1|54=1|55=XBTUSD|59=1|60=20160612-07:29:28|10=196|
20160612-07:29:28.000 : 8=FIX.4.4|9=265|35=8|34=2|49=BTCC-PRO-EXCHANGE-SERVER|52=20160612-07:29:28.723|56=cde4ca87-dc34-4a80-af56-01812c66653d|6=0|11=654cb835-306f-11e6-ab19-b88d1238d4d8|14=0|17=da48e1b4-233e-42e9-90ef-3c3d2227f932|37=-1|39=8|44=0|54=1|55=XBTUSD|58=Margin Insufficient|103=99|150=8|151=0|10=210|
20160612-07:29:30.000 : 8=FIX.4.4|9=329|35=D|34=3|49=cde4ca87-dc34-4a80-af56-01812c66653d|52=20160612-07:29:30.000|56=BTCC-PRO-EXCHANGE-SERVER|1=1465716568050976:Basic MWJkZTY0MDctODM2ZC00NmU2LTk3ZWUtZGYzNjhjNTM4YmQyOmI5MTUzMDdjZDRhYzA3M2ZiMDhjNjczMTk4ZDQ0Y2JhMjM0MjdmNDI=|11=654e48e8-306f-11e6-91af-b88d1238d4d8|38=1|40=2|44=1|54=1|55=XBTUSD|59=1|60=20160612-07:29:28|10=198|
20160612-07:29:30.000 : 8=FIX.4.4|9=265|35=8|34=3|49=BTCC-PRO-EXCHANGE-SERVER|52=20160612-07:29:30.379|56=cde4ca87-dc34-4a80-af56-01812c66653d|6=0|11=654e48e8-306f-11e6-91af-b88d1238d4d8|14=0|17=5104ed6f-aed8-4f6f-8e89-f80924fd6515|37=-1|39=8|44=0|54=1|55=XBTUSD|58=Margin Insufficient|103=99|150=8|151=0|10=045|
20160612-07:29:32.000 : 8=FIX.4.4|9=329|35=D|34=4|49=cde4ca87-dc34-4a80-af56-01812c66653d|52=20160612-07:29:32.000|56=BTCC-PRO-EXCHANGE-SERVER|1=1465716568051261:Basic YTM5YWQxMjEtMzFhNS00YTFhLWFjYzctYjcwMmM3Y2E0NmY3OjA4OGM4MzRlY2UxYTFlMGM3NTA2MDcxZTQ0YjNhYzQ2YjU3NDgwM2I=|11=654e51bd-306f-11e6-bb2f-b88d1238d4d8|38=1|40=2|44=1|54=1|55=XBTUSD|59=1|60=20160612-07:29:28|10=223|
20160612-07:29:32.000 : 8=FIX.4.4|9=265|35=8|34=4|49=BTCC-PRO-EXCHANGE-SERVER|52=20160612-07:29:32.382|56=cde4ca87-dc34-4a80-af56-01812c66653d|6=0|11=654e51bd-306f-11e6-bb2f-b88d1238d4d8|14=0|17=69e5a340-7f84-44f7-ad71-4cb9ba8f322b|37=-1|39=8|44=0|54=1|55=XBTUSD|58=Margin Insufficient|103=99|150=8|151=0|10=099|
20160612-07:30:02.000 : 8=FIX.4.4|9=103|35=0|34=5|49=cde4ca87-dc34-4a80-af56-01812c66653d|52=20160612-07:30:02.000|56=BTCC-PRO-EXCHANGE-SERVER|10=017|
20160612-07:30:02.000 : 8=FIX.4.4|9=103|35=0|34=5|49=BTCC-PRO-EXCHANGE-SERVER|52=20160612-07:30:02.826|56=cde4ca87-dc34-4a80-af56-01812c66653d|10=033|
20160612-07:30:32.000 : 8=FIX.4.4|9=103|35=0|34=6|49=cde4ca87-dc34-4a80-af56-01812c66653d|52=20160612-07:30:32.000|56=BTCC-PRO-EXCHANGE-SERVER|10=021|
20160612-07:30:32.000 : 8=FIX.4.4|9=103|35=0|34=6|49=BTCC-PRO-EXCHANGE-SERVER|52=20160612-07:30:32.826|56=cde4ca87-dc34-4a80-af56-01812c66653d|10=037|
20160612-07:31:02.000 : 8=FIX.4.4|9=103|35=0|34=7|49=cde4ca87-dc34-4a80-af56-01812c66653d|52=20160612-07:31:02.000|56=BTCC-PRO-EXCHANGE-SERVER|10=020|
20160612-07:31:02.000 : 8=FIX.4.4|9=103|35=0|34=7|49=BTCC-PRO-EXCHANGE-SERVER|52=20160612-07:31:02.826|56=cde4ca87-dc34-4a80-af56-01812c66653d|10=036|
20160612-07:31:32.000 : 8=FIX.4.4|9=103|35=0|34=8|49=cde4ca87-dc34-4a80-af56-01812c66653d|52=20160612-07:31:32.000|56=BTCC-PRO-EXCHANGE-SERVER|10=024|
20160612-07:31:32.000 : 8=FIX.4.4|9=103|35=0|34=8|49=BTCC-PRO-EXCHANGE-SERVER|52=20160612-07:31:32.826|56=cde4ca87-dc34-4a80-af56-01812c66653d|10=040|
20160612-07:35:25.000 : 8=FIX.4.4|9=121|35=A|34=1|49=cde4ca87-dc34-4a80-af56-01812c66653d|52=20160612-07:35:25.000|56=BTCC-PRO-EXCHANGE-SERVER|98=0|108=30|141=Y|10=110|
20160612-07:35:26.000 : 8=FIX.4.4|9=121|35=A|34=1|49=BTCC-PRO-EXCHANGE-SERVER|52=20160612-07:35:26.046|56=cde4ca87-dc34-4a80-af56-01812c66653d|98=0|108=30|141=Y|10=121|
20160612-07:35:26.000 : 8=FIX.4.4|9=329|35=D|34=2|49=cde4ca87-dc34-4a80-af56-01812c66653d|52=20160612-07:35:26.000|56=BTCC-PRO-EXCHANGE-SERVER|1=1465716925819313:Basic YTM5YWQxMjEtMzFhNS00YTFhLWFjYzctYjcwMmM3Y2E0NmY3OjRhMmI0YjQ3MDk2MzFkMGIwZTQ0ZThhNTAzYzI4NjVjNTgyODljYzU=|11=3a8d7223-3070-11e6-b4ee-b88d1238d4d8|38=1|40=2|44=1|54=1|55=XBTUSD|59=1|60=20160612-07:35:25|10=176|
20160612-07:35:27.000 : 8=FIX.4.4|9=305|35=8|34=2|49=BTCC-PRO-EXCHANGE-SERVER|52=20160612-07:35:27.514|56=cde4ca87-dc34-4a80-af56-01812c66653d|6=0|11=3a8d7223-3070-11e6-b4ee-b88d1238d4d8|14=0|17=5b84ffea-0313-4c78-a398-6d9bfa3f3f63|32=0|37=f4c7c9b099e84ba7afb3dd8006cd9eb4|39=A|40=2|44=1|54=1|55=XBTUSD|59=1|60=20160612-07:35:27.435|150=A|151=1|10=120|
20160612-07:35:27.000 : 8=FIX.4.4|9=305|35=8|34=3|49=BTCC-PRO-EXCHANGE-SERVER|52=20160612-07:35:27.514|56=cde4ca87-dc34-4a80-af56-01812c66653d|6=0|11=3a8d7223-3070-11e6-b4ee-b88d1238d4d8|14=0|17=53c1c937-8b24-4c7e-b1b2-9344a7fc2a6b|32=0|37=f4c7c9b099e84ba7afb3dd8006cd9eb4|39=0|40=2|44=1|54=1|55=XBTUSD|59=1|60=20160612-07:35:27.435|150=0|151=1|10=021|
20160612-07:36:28.000 : 8=FIX.4.4|9=121|35=A|34=1|49=cde4ca87-dc34-4a80-af56-01812c66653d|52=20160612-07:36:28.000|56=BTCC-PRO-EXCHANGE-SERVER|98=0|108=30|141=Y|10=114|
20160612-07:36:28.000 : 8=FIX.4.4|9=121|35=A|34=1|49=BTCC-PRO-EXCHANGE-SERVER|52=20160612-07:36:28.988|56=cde4ca87-dc34-4a80-af56-01812c66653d|98=0|108=30|141=Y|10=139|
20160612-07:36:28.000 : 8=FIX.4.4|9=329|35=D|34=2|49=cde4ca87-dc34-4a80-af56-01812c66653d|52=20160612-07:36:28.000|56=BTCC-PRO-EXCHANGE-SERVER|1=1465716988831075:Basic YTM5YWQxMjEtMzFhNS00YTFhLWFjYzctYjcwMmM3Y2E0NmY3OmRjMTFlNTQyMDljYjYwMjQ5MGQ5M2I4MzM3MWQwODZmMjllYzFkNjg=|11=601c4447-3070-11e6-af7f-b88d1238d4d8|38=1|40=2|44=1|54=1|55=XBTUSD|59=1|60=20160612-07:36:28|10=137|
20160612-07:36:29.000 : 8=FIX.4.4|9=305|35=8|34=2|49=BTCC-PRO-EXCHANGE-SERVER|52=20160612-07:36:29.286|56=cde4ca87-dc34-4a80-af56-01812c66653d|6=0|11=601c4447-3070-11e6-af7f-b88d1238d4d8|14=0|17=9bce2f78-a781-4b32-8280-466b51a7ca6b|32=0|37=e7d8f8bb25874646a2a69850299c0cb9|39=A|40=2|44=1|54=1|55=XBTUSD|59=1|60=20160612-07:36:29.201|150=A|151=1|10=209|
20160612-07:36:29.000 : 8=FIX.4.4|9=305|35=8|34=3|49=BTCC-PRO-EXCHANGE-SERVER|52=20160612-07:36:29.287|56=cde4ca87-dc34-4a80-af56-01812c66653d|6=0|11=601c4447-3070-11e6-af7f-b88d1238d4d8|14=0|17=7c2dd5d3-318d-4f93-9102-f73c10da3b19|32=0|37=e7d8f8bb25874646a2a69850299c0cb9|39=0|40=2|44=1|54=1|55=XBTUSD|59=1|60=20160612-07:36:29.201|150=0|151=1|10=167|
20160612-07:36:58.000 : 8=FIX.4.4|9=103|35=0|34=3|49=cde4ca87-dc34-4a80-af56-01812c66653d|52=20160612-07:36:58.000|56=BTCC-PRO-EXCHANGE-SERVER|10=032|
20160612-07:36:59.000 : 8=FIX.4.4|9=103|35=0|34=4|49=BTCC-PRO-EXCHANGE-SERVER|52=20160612-07:36:59.826|56=cde4ca87-dc34-4a80-af56-01812c66653d|10=050|
20160612-07:37:28.000 : 8=FIX.4.4|9=103|35=0|34=4|49=cde4ca87-dc34-4a80-af56-01812c66653d|52=20160612-07:37:28.000|56=BTCC-PRO-EXCHANGE-SERVER|10=031|
20160612-07:37:29.000 : 8=FIX.4.4|9=103|35=0|34=5|49=BTCC-PRO-EXCHANGE-SERVER|52=20160612-07:37:29.826|56=cde4ca87-dc34-4a80-af56-01812c66653d|10=049|
20160612-07:37:58.000 : 8=FIX.4.4|9=103|35=0|34=5|49=cde4ca87-dc34-4a80-af56-01812c66653d|52=20160612-07:37:58.000|56=BTCC-PRO-EXCHANGE-SERVER|10=035|
20160612-07:38:00.000 : 8=FIX.4.4|9=103|35=0|34=6|49=BTCC-PRO-EXCHANGE-SERVER|52=20160612-07:37:59.826|56=cde4ca87-dc34-4a80-af56-01812c66653d|10=053|
